S123A0007EA03F7EA0630F8E01FF964B8A01974BBDB68DDF49BDB1DA7EA85F0D0A57696E39
S123A02074656B204845524F2D49204241534943202D2D2056657273696F6E20302EB50FD0
S123A0408E01FFCEA01BBDA323964B8A01974BBDB68DDF49BDB1DABDA1D9CE4002FF40001E
S123A060BDA1E30F8E01FFCE00AFDF53BDA1DEC63EBDA2C6CE00AFBDA376DF78BDA3C04DD3
S123A080261ADE4FA600810D2608D67027D5975B200ABDA86D270586107EA4A49685906E1C
S123A0A09785D67027037EA1F6BDA306EE006E00425744AB92434C4FA4F5435055A51744C0
S123A0C04154A91744494DA77B445052AC01454C53A81F454E44A063455854AC38464F5257
S123A0E0AAAD465744ABA5474F53AA5C474F54A896475249AC40484541AC48494620A9AC29
S123A100494E50A8AD4C4346AC504C4546ABB84C4554A8874C4953A4414C4F41A4FE4D4FF9
S123A1204EF37E4E4558AADA4F4E20A970504F4BAB62505249A58050554EA51B504956ACC2
S123A14058524541A92652454DA81F524553A96A524554AA8E524947ABCB524F54AC605286
S123A160554EA85F534352A05753484FAC68535045ABDE544346AC70555345A52D57484F3D
S123A180A53400414253AD2A454152B23F455854B1E0455945B234475249B1FC484541B212
S123A1A0034B4559B5614C4346B2A44D4F54B272504545AD17504956B1F5524E44AD2E5216
S123A1C04F54B1EE53474EAD2253484FB1E7534F4EB24A544346B29E00CE0147DF53CE00D1
S123A1E055200ADE4908DF53FE4000DF514FA700089C5326F939DE49DF7EDE78DF4FBDA261
S123A2009BDF6A5D26325CA60008810D26F8DE6ADF7137085A26FCDF783386FF508D61DE6D
S123A2206ABC40002710DE78A60008DF78DE71A70008DF7120EBDE6A965B2641FE4000D615
S123A24085CB02378D3A33DF71085A26FCDF78DE719C6A271009DF71A600DE7809A700DFDC
S123A26078DE7120EC09BDA7720808DF6ADE4FA60008DF4FDE6A08A700810D26EE7EA063AC
S123A280FB4001B94000D7819780BDAF602407F74001B740003986907EA4A496ABD6AACE4C
S123A2A04002BC400026025C39E100220A26F8A101220426F25F398D030820E636860D088D
S123A2C0A10026FB32398D3E172602C63FBDA49E8620BDA49E7F0085CE00AF8D1027E7A7C7
S123A2E000810D2720088C00F726F020D98D3A8108260B8C00AF270D097A008520EF817FE4
S123A30027037C008539DF6A966B36966A36CEA327A60008BDA49E4D2AF730EE0031317F6D
S123A320006539343420EA0D8ABDE7D0847F8100260586997EA4A481602306817A220280C1
S123A3402039BDB399240586997EA4A439810D2702813A39BDADC94F97A997AA97AB398D9A
S123A360F69770976F976EBDA3AD812B2707812D260473006F08BDAF9BC1032705966F7EAE
S123A380AE64089770840FC6047800AB7900AA7900A95A26F49BAB97AB7C006E20D8DE4FC8
S123A3A0A600812027070820F78DB40908A600812027F939DE4FBDAF9BC10226F00820F6E8
S123A3C0BDA3ADDF4FDF6ACEA0B0C605A1002612DF53DE6A08A600DF6ADE53085AC1022646
S123A3E0EB39085A26FCA60027F7DF53DE4FDF6AA600DE5320D496AB3696AA36C6020C9623
S123A400A9362A1A862DBDA49E7C00650C200F323685F025022707BDA4967C00650D32C539
S123A420FF2706850F25022707BDA49A7C00650D5A2ADC39C6010CA60136A60036080820C5
S123A440CEBDA3B4810D2725BDA35FDF4FBDA29BDF6ABDA3B4810D26057C0063200B08BD70
S123A460A3ADBDA35F96AB9763DE6A2003CE4002BC4000271EBDA3068DBAA600810D2705C5
S123A4808D1C0820F508966327E68B99192704976320DD7EA06344444444840F8B30BDA346
S123A4A0427EE75D36BDA306CEA4D8BDA3233236BDA49632BDA49AD66126037EA063CEA44C
S123A4C0E6BDA323DE4F098C40022707A600810D26F408BDA43420E3074572726F72206E50
S123A4E0756D626572A020666F756E64206174206C696E65A0C608BDE5D0241820115FBD3B
S123A500E5D02410CEC000BDB39925F80926F886127EA4A47EA81FC60820015FCE40020969
S123A52009DF3BEE00DF3DBDE6197EA81FDE3FAD007EA81FCEA53DBDA3237EA81F0D0A4407
S123A540656E6E69732C204A696D2C20262053746576652061742057696E74656B20436F7C
S123A56072706F726174696F6E2C204C61666179657474652C20496E6469616E612E0D8A49
S123A5805F37BDA3B4BDA34D26037EA632335F37812C261ED6658620BDA49E5CC50726F603
S123A5A0D765C14F2303BDA306335C3708BDA3AD20D3813B27F381222605088D7F20657F35
S123A5C0005F81542606975F864120068153262E8650A1012628BDA3B6BDAC78BDA718D6FD
S123A5E0AB2741965F27075AD16523382002DB658620BDA49E7C0065D16526F420268143F4
S123A600261C8648A1012616BDA3B6BDAC78BDA71896ABBDA49E4D2B0B7C00652006BDACA2
S123A62078BDA3F6BDAF965A26037EA58586317EA4A4335D2603BDA3067EA81FA6008122F1
S123A640270EBDA34D270DBDA49E7C00650820EC087EA3AD86327EA4A4DF4FBDAF9DC1029E
S123A6602634804116481B8BF99769C600C900D768DE6839A600087F00608DDD5FA60081F4
S123A6800A2706810B2701395CA60136A6023637BDA3B433812826715D271308BDAC7B96A4
S123A6A0AB36BDADDABDA3B4812C265D20024F364C976008BDAC7B08DF4F32975C329769CA
S123A6C0329768DE68A600975E0808DF68BDA354965CDE6809A100223097ABBDA354965E3B
S123A6E091A5270223238B011997ABBDAE6EBDAE42BDA70E9668D669DBAB99AA9768D7698D
S123A700BDADDADE687F00603986147EA4A4BDA354860397ABBDAE6E96AB3696AA365FD7B8
S123A720AAD7AB96A98D2232368D1A328D1B32368D13328D2D7D00A92A0A96AA437000AB26
S123A74082FF97AA39444444448D17D6AA485937364859485997AB32D7AA8D08329BAA97DE
S123A760AA39840F9BAB97AB24037C00AA3996A9A70096AAA70196ABA70239DE49DF7EBD1F
S123A780A3B4BDA3ADBDA659DF53BDA3B48128262A08BDA3A9812926054F365F2022812C9D
S123A7A0261996A99AAA261396AB270F8198220B3608BDA3A9C6018129270586407EA4A46D
S123A7C096A99AAA26F596AB27F1819822ED36DF4FDE53860A1BA7009651A7019652A7024F
S123A7E0DE5132A7000833E70008DF688B011936178B011916BDA357D7ABBDA3543297ABCE
S123A800BDAE6EBDA6F1BDAF5E23037EA296DF51DE4F08BDA3ADBDA34D2704087EA78296D2
S123A8206126037EA063DE4F860DC63AA1002707E100270B0820F508BC400027E601080828
S123A840BDA3424F976497609773BDA3C04D260BDE4F8D19270586107EA4A4EE006E00BDF5
S123A860A1D9BDA1E3CE40027C006120CBBDAF9BC102261208BDA3AD813D2704812826066C
S123A880CEA11297645F39DE4F96642603BDA39EBDAAC97EA81FBDA3B4BDAC78BDA29B5D91
S123A8A0270586167EA4A45CD7617EA838BDA3B48122260408BDA63CBDA904DF4FBDA2C8CD
S123A8C0BDA306CE00AFDF78DE4FA600BDA34D26037EA81FBDA357DE78BDAF96C10226094B
S123A8E016BDAF35BDA3B62007C1012703BDA35FBDA904DF78DE4FBDA674BDA911BDA9040F
S123A900DF4F20C8C63FA600812C26045FBDA3AC39BDA76E7EA3B496612747BDA3B49762DE
S123A920DF55DF57203C9661273896622737BDA39EBDA3ADBDA676DF7ADE4FDF7CDE57BDEA
S123A940AC78A60008BDA34D2602DE55DF57DE7CDF4FDE7A8DBB812C26030820D4BDA34D3C
S123A96026037EA81F86517EA4A4DE55DF5720F2BDA39EBDAC7896AB840F367F005B08087A
S123A980A60081542702975BBDA3A0DF6A324A2711E60008C12C2604DF6A20F2C10D26F1DB
S123A9A0DE6AD65B27037EAA637EA899BDA3B4BDAC78A600BDAA50264B36A601BDAA50321D
S123A9C02604E6011B080836BDAC7832840F80092B324848CEA9EC4D2704084A26FCDF783F
S123A9E0BDAE3CBDAF6B07DE78066E002F1B2039261720352C1320312D0F202D270B20293B
S123AA002E07202586627EA4A4DE4FA600815426158648A101260FBDA3B4DF4FBDAF9DC176
S123AA200326037EA8997EA84ADE4F860DC63AA100271AE10027030820F5BDA3AC814526F5
S123AA400C864CA1012606BDA3B67EA84A7EA81F813B2306813E22025F395C39D66127C95F
S123AA60BDA3B47C0063BDAC784F36965036964F369F7ECE018ABDAF5E23037EA296BDA2C7
S123AA809B5D27037EA8A25CD761087EA83F86737A00632A037EA4A433D74F33D750335DBB
S123AAA027087A005D2AF17EA4A47EA81FBDA39E368D16965036964F369F7ECE018ABDAF76
S123AAC05E22B87C005D7EA81FBDA674DF7ABDA3B408BDAC78DE7A7EA76EBDA39EDF667D44
S123AAE0005D277930A102270C6D0227703131317A005D20EA30EE00DF4FBDA676DF7ABD9A
S123AB00A3B4BDAC78BDADC9DE7ABDADBCDE4FA60081532708BDA3544C97AB200ABDA3B6F0
S123AB20BDAC7896A99764BDAE42CE0059BDA76EBDAE3CBDAF6B07D6642B05062C112003FB
S123AB40062F0C3131317A005DDE66DF4F200BCE0059BDADBCDE7ABDA76E7EA81F86817E68
S123AB60A4A4BDA3B4BDAC78BDA71896AA3696AB36A600812C261608BDAC78BDA71832976E
S123AB8054329753DE5396ABA7007EA81F86207EA4A4BDA3B4BDAC78BDA718D6AA96ABBD88
S123ABA0B2FB7EA81FBDA3B4BDAC78BDA718D6AA96ABBDB2F47EA81FBDA3B4BDAC78BDA76C
S123ABC018D6AA96ABBDB2E37EA81FBDA3B4BDAC78BDA718D6AA96ABBDB2EB7EA81FBDA3D0
S123ABE0B48122260C08DF4FD64F9650BDB3BE200DBDAC78BDA718D6AA96ABBDB3B27EA8C6
S123AC001FBDA3B48122260C08DF4FD64F9650BDB5842009BDAC78CE00A9BDB5297EA81F90
S123AC20BDA3B4813D270586187EA4A408BDAC78BDA718D6AA96AB398DE6BDB1517EA81FD8
S123AC408DDEBDB1657EA81F8DD6BDB16A7EA81F8DCEBDB1C67EA81F8DC6BDB1607EA81FB3
S123AC608DBEBDB15B7EA81F8DB6BDB1567EA81F8DAEBDB1B27EA81F7F0073967397748DF8
S123AC80074D2601397EA4A49FF7BDAF96DF4FC10126048621205054C1032603BDA354DE9A
S123ACA04FBDAF96DF4F8124274CC1042302C6055D27325A27215A27455A27305A270436BA
S123ACC00820C73009D6609CF72709325F812826037EAD5F5D270E4FD6735AD1742606303D
S123ACE0099CF7270486209EF7DE4F39BDADC9DE4FBDA35F206CBDADC9BDB6E62064A60186
S123AD00BDAF9DC1022633A600DF6ACEA183BDA3CA4D27C37EA85B865B36DE6ABDA3B67E54
S123AD20AC8A863F36DE6A7EAC8A864020F6BDA354BDAFEE97ABDE6A2028D6F737D6F8371D
S123AD40D67437D66037BDA67433D76033D77433D7F833D7F7BDADC9DE68BDADBC2005DE9D
S123AD604F08DF4F30099CF7273F323681282739BDAF9D96734A37C10D270954C1042704D2
S123AD8091742725810923048624201A32338006CEADAC4D270508084A26FBEE00AD00BD6B
S123ADA0AF6B28C086237EACE77EAC9FAE42AE3CAEFCAE34AE6EAE8FAF0EAF2BA60097A9CE
S123ADC0A60197AAA60297AB39CE0082E603E700088C00A926F67C007339CE00ABE600E77D
S123ADE003098C008126F67A0073390CCE00ABA600A90319A700098C00A826F337C6028583
S123AE00F026015FDA77D7771733398D030D20DCCE00AE8699A000A700098C00AB26F4843D
S123AE200FA701397F007796AC16C40FD7AC977698A99775D6A9C40FD7A94D3996A988F011
S123AE4097A98D5A8DDE2A0C8DC1BDAF892809730076200B8D95200A8D44BDA3548DAC7F15
S123AE600077967684F0C60FD4A91B97A9398D2E8DB2BDA354C60596A62708BDADEB7A003E
S123AE80A626F85A273D8D4A96A9BDADFC20E88D0DCE00ACBDAF6E260886227EACE77EADA8
S123AEA0DABDAE24BDADC98D296F026F03C6058D21BDAE108D2E85F02613BDAE100C8D25C3
S123AEC05A26EC96758D9DCE00A57EADDD7C00AB20E28604CE00AB0C6900098C00A526F859
S123AEE04A26F1390DCE00A896A6840F97A6A600A90619A700098C00A526F3398D6D270B58
S123AF00D6A98D077C00AB177EAE647EA3578D8E5FD77796AE27EBBDADC98D828B99192710
S123AF204936BDAE27BDAE723220F1BDA718DEAAE600BDA357C16425077C00AAC06420F58B
S123AF4037C40F4F1B1997AB3284703644444419161B191B19331B199BAB1997AB39DF80BF
S123AF609680917E2604D681D17F39CE00A95F6D02260E6D01260AA600840F2604A700C6B7
S123AF8004A6004684081B9A77373684EF160784101B06323339BDA3AD2002A600C6018198
S123AFA00D271F5A3680282B18811823168132230E81332604C60D200881362604C60ACBB4
S123AFC0023239DF6CCEAFD54D2704084A26FCE600DE6C20EC05040A060107000B03030306
S123AFE00303030303030301010101010809C608CE004BA603484848A803484869006901AC
S123B000690269035A26ECA600819F22E18B0019393637BDA354335D332A0586F097A9502A
S123B020BDAF35DE6ABDA3B67EAD6236375F37201C305D2A045340C2FF363756E802CA7F3C
S123B04037E6022A07536003C2FFE7025F8611364F302404AB03E9025646660666076A00F1
S123B06026F04D26035D27010B07E6066701240F2A07536007C2FFE706E8012A028A02EEFA
S123B080043131313131310633326E000C0A200A0C0B20060D0A20020D0B3637074684811C
S123B0A0241B30E6042A09536005C2FFE7048806E6002A09536001C2FFE70088023686084B
S123B0C03630A60227245FA606E706690749592407A003E2020C200AA003E2022404AB03C4
S123B0E0E90269076A0026E520220DE6030B273B680068076906492404100C2004102401AB
S123B1001B690769066A0026ED5F6306630767012406A707E706670167012A0EE606240835
S123B120536007C2FF0DE70656590C07EE040631313131313133326E00BE009828360086A9
S123B140481B4D93683B00A5882662C2C84B0075A8CEB1392017CEB13D2012CEB141200D94
S123B160CEB1452008CEB14D2003CEB14937E60337E60237E6013736A60030E60437E6027F
S123B1806D042A015FE7045FBDB031291B84E08A10574624FC57468900C90030AB00C90036
S123B1A02606A1012202A7033131303FE300833131393637860C5FBDB03136378664C60004
S123B1C0BDB0949741393637866D5FBDB03136378664C600BDB094974239CE0C6DDF41392C
S123B1E0CEB13996002021CEB13D9601201ACEB14196022013CEB1459603200CCEB14D96B9
S123B200042005CEB14996055FA001C20048594859485948594859485948592A06A000C2E3
S123B220002004AB00C90057463637A6005FBDB0947EB0113F41B6C24051835F7EB0113F3A
S123B24042B6C24052835F7EB0113F455F96105A2A06911027F9D6115583175F485980193A
S123B260C20024024F5F36378605C600BDB08C7EB0113F4B83CEC3500926FD86FD9423B733
S123B280C2008A02B7C200CE7530C6028601F5C20026040926F84F5F3F5B837EB011964138
S123B2A0C60C20049642C66D375F36378664C600BDB031303637A6005FBDB094317EB01125
S123B2C03696412003369642375FBDB02B280486FFC6FF54465446544654465446544626C6
S123B2E0015D398DDB270C8D3F20068DD327048D118D74398D538DCD266D398D4C8DC6266B
S123B3006B3936960681933F2709D3E804C3F08FC3E893B6C260438508260A7F0006C3E8E9
S123B32093869397068332393F3696062709D3EC04C3F004C3E800B6C260438540260786D9
S123B340939706C3E800833239369606814927153F2508D3EC04C3F04D2006D3E804C3F081
S123B36045C3E84983323937C61B200337C61F3730E6016F0163013F80FFC2032504E3009A
S123B38020F68BFFC903CAFCA401E400A701E700E3008F0010833131397DC2A02B13363735
S123B3A04FC60A7DC2A02AF84A26F85A26F533320D39363730EE0031313F6200833934342F
S123B3C036373086FFC603A703E702333234363730A60316C4C0E702E604E703085C26F833
S123B3E081FF260144A7028D3930EA02E70225DBEE00A60030810D271D813A27198122278F
S123B400158031250981042405444646A7026C0126026C0020D13131313F620383324C26BD
S123B420FC3930EE02C604A6038A2036095A26F75FCEB46D5C086D002B1B32A10027F53656
S123B44009A6005A26F908A6002AFB6D0126E531313131201817C0052704315C26FC4AE692
S123B46000C47F30AB03A70324026C020D3973746F70BF65683380656832816568318270AE
S123B4806130836168328861773193616831956F6F3196756833A3616531AF617732B075B9
S123B4A06832B1756831B2746876B8706131BE6474846132856131867A68876933896932FE
S123B4C08A69318B6368907368916E67946F6F976179A17931A26168A46165AE7568B36F6D
S123B4E032B46F31B56975B67531B77468B96572BA6568BB6531BC6177BD6D8C6E8D628EA3
S123B500768F7A926C986B996A9A689B679C669D649E739F61A070A56FA669A775A879A973
S123B52074AA72AB65AC77AD00C603A60236095A26F985F02704862D8D605F328D14328D3D
S123B54009328D065D26194F200D36444444448D0132840F26015A5C27068B30378D3B3371
S123B56039865F8D3586088D31BDF77736810923028B078B308D23325F7EB0118D1C3332B0
S123B5808B01C900363730EE00A60081222708813A2704810D26E53131398124260BCEFF92
S123B5A0FF0926FDBDF65B2063F60FF38108260BC16F2458CB10F70FF32051815F224D8059
S123B5C02025498B4D3686B689003630EE003131A60081FF27765454545453CB4A37C6FFD9
S123B5E0C9003730EE003131818026238C0043271E096D002B18AA00A700B60FF38B10B755
S123B6000FF3FE0FF2A7008010B70FF3203E088C00492712A700BDF7C88C0048262ECEFFA9
S123B620FF0926FD2026CE0043E601E700088C004826F6A700BDF64ECECFFF0926FDCE0080
S123B64043C606A600BDF7C8085A26F73900A022FFFFFFFF204E78FFFFFF0180FF7E306DC1
S123B66079335B5F707F7BFFFFFF09FFFFFF771F0D3D4F475E17043C2F0E55151D67730525
S123B6805B0F1C3E5C093B6D4EFF78FF0886FFC647200AEE02A70031313332CB0836373679
S123B6A03730EE02A600C655E700E1002627536300E10026203037E600C008C140E700334C
S123B6C025D1EE00E10026ED30EE0263005330EE00E10026E030EE02A700313133C0083758
S123B6E030EE003332394F97A997AA97ABDE4F8D3D250586207EA4A436C60496AB9BAB194B
S123B70097AB96AA99AA1997AA96A999A91997A95A26E8329BAB1997AB860099AA1997AACE
S123B720860099A919840F97A98D0325CB3908A6008030250D810A250A4A811025048116B3
S107B74025010C3996
S9030000FC
