S123E0000EBD0012FE0FF4EE06FF0EE2BDF83C2429FE0EE2A600CEE03CA100270D08080892
S123E0206D0026F5BD0015240539EE01AD00FE0FF45FAB07E906A707E7060C3902E390032B
S123E040E39904E39D05E3B21CE3CA1DE3CE1EE3D21FE3D621E4173AE10241E0A942E0AD0E
S123E06045E0B84BE0BC4EE0C051E0CA52E0D555E0E05BE0E45EE0E861E33362E32F71E34F
S123E0804D72E34983E41187E4508FE486C3E105CCE109D3E15ADCE15EE3E133ECE137F3EF
S123E0A0E11BFCE11FFDE1F600C6A020150F01F60F03C47FCA20200DC6022006C6042002A9
S123E0C0C610FA0F038D2B860139F60F03C580271EC6DF2015F60F03C5802613C6DF200A21
S123E0E0C6FD2006C6FB2002C6EFF40F038D038601390F01F7C2E0F70F030ECE1000092678
S123E100FD397EF423860720014FB70F20FE0FF4EE06EE01FF0F1E86032079860720014F1E
S123E120B70F20FE0FF4EE06EE01EE00FF0F1E86032061860720014FB70F20FE0FF4A6055E
S123E140E604EE06AB01C900B70F1FF70F1EFE0F1EEE00FF0F1E8602203A860720014FB784
S123E1600F20FE0FF4EE06EE01FF0F1EB60F1E16494949498407271A4A364F3630EE00311F
S123E18031A600C5042705B00F1F2003BB0F1FB70F1F860336F60F20B60F1E84E0272581E8
S123E1A0E0260CCE0EE4C402F70F20C602200ACE0EF0C404F70F20C604F70F21D50B26FCFE
S123E1C08D62201FC401F70F20C601D50B26FC0F01960C84EE970C0EC611F70F21BDE2F7F0
S123E1E0B70F01B60F210F019A0B970B0E32F60F20D50B26FC39FE0FF4EE0608FF0F2686C0
S123E20028B70F1EFE0F26A60008FF0F26B70F1F8606B70F20BDE194B60F1E8B2085E02637
S123E220E0860839FF0F1CFF0F2244441654541B541B5F8B9FC9E2B70F25F70F24C6078D66
S123E24050FE0F24A60036B60F1E8418270508800820F9E600FE0F1CE707E708EE04A60085
S123E260B00F1F24045F402002C604FE0F1CE709A70B6F0AA601680B690A4426F9324D272F
S123E2800F0F01F60F02C43F1BB70F02B7C2C00E395D2715FE0F24A60008FF0F24FE0F2215
S123E2A0A70008FF0F225A20E839F01FC280000000400604030F1FC2800001248006030222
S123E2C00F07C260000200800603020F07C260000300400705030F03C2800004004006034A
S123E2E002F01FC28000051280060403F007C26000064800060302F60F1EC403F70EFDF6CF
S123E3000F1FF70EFEB60F1ECEE32B8418444444B70F1B2704084A20FAA600F60F1EC50497
S123E32027028A807F00077F0008390040607F860820014FB70F20860236FE0FF4A605E60D
S123E34004EE06AB01C9002017860820014FB70F20860336FE0FF4EE06A602E60120013697
S123E3603686080F01BA0F03B70F03B7C2E00ECE27100926FD32FE0F15BDF1F125108608E2
S123E3800F019A0B970B0EF60F20D50B26FC3239863FB70F01861120068602200286040FF6
S123E3A001950B2721369A0C970C320E950B26FC201486F7C6F70F01F40F03F70F03F7C2A9
S123E3C0E001940B970B0E8601398601200A86022006860420028608950B2603860239FE28
S123E3E00FF4EE066D012B0FFE0FF4A607E606EE06AB01C900200DFE0FF4A607E606EE06BC
S123E400AB01C9FF8B02C900FE0FF4A707E7064F397F0EE18601398675970486A5970386FB
S123E420939702869897008686970186C9970586939706CEE442BDE1FCCEE449BDE1FC8609
S123E44001390000000000000000004D00006249B6C2808502262CFE0FF4EE06EE01272387
S123E460DF0DBDE390BDE399BDE39DBDE3B2FE0FF4A607E6068B03C900A707E7068640B7AB
S123E480C2E03E860339FE0FF4EE06EE01270DB60EFC8B40B10EFC26FB0920F18603395F1C
S123E4A0CEE4D61E04EC0008081D0ECCE8258F00021D06CCE86E8F0002C50126071C0BCC61
S123E4C0182020051C04CC1C205C1F0371E4F28CE4F226CF20CAD080505A90A55037505A4D
S123E4E0D0905037505AD0A05037505AD0B05037505A193B0D1A2C3E282B152A153E3E3EEF
S123E5003E3EFFBDF65BBDF7E5F9CEC15FFF0FF2BDF777BDF7B5CEE51DBDF47720E539E53F
S123E5201EE53FE555E572E57CFFC4FFCAFA26FA1FE580E588FF33FF64E51EE51EE51EFE70
S123E5400FF4864DC6E5A707E7067EF5B57D0EE126013F213AFE0FF48663C6E5A707E70616
S123E5607EF5B57D0EE126013FFD00004D000062493A8D31C608BDE6197EF37EC608200940
S123E5808D235FBDE61920F15F0F8610B7C2E0B70F038D3C250220EEBDF64EBDF7E54F0589
S123E5A0051D8520FE0F018610B7C2E0B70F03BDF5A14785BDF64ECE003BC602BDF6A0BDC9
S123E5C0F5A10EFDBDF64ECE003DC602BDF6A0393434BDE7CD815326F9BDE7CD81392736E2
S123E5E0813126EE34B7C16F4F30BDE7A9BDE7A9BDE7A930EE01D73933C00337D639BDE7C1
S123E600A9D739335A26F47FC16FD639CE0039BDE7A94C27BD0D3131395D2F07BDE71786D8
S123E62007200286044A26FD37D63D963E903CD23B2558810FC2003324022003860F019747
S123E640398B04973ACEE6A65D2A03CEE6B08D63CE003B4F015D2B0309A50001018D75014E
S123E66026F9DE3B8D627A00392AF943360186074A26FD325D2B028D6EB6C2A0430CDF3BED
S123E680DF3B229F083786064A26FD330186034A26FDCEE6AB5D2B0D8D195D270886134A30
S123E6A026FD8D730C390D0A5331000D0A53391A0D0A00A600088D490186104A26FDA60051
S123E6C0086D0026F1082039AB003686055D2A09BDE75B32AB00368606014A26FDA6008D0E
S123E6E00632088C003D3936444444448D0886124A26FD32840F810A24022003018B078B3D
S123E700305D2F590C8D28360D468D1B014426FA8D1532080920100D368D1437C66E178D81
S123E72006014A26FA333236861501377EE7373637017EE73A861C4A26FD8601BDE750863D
S123E7401D4A26FD078401BDE7515A26E833323901B80F03B70F03B7C2E039862036378AE1
S123E760808D210D8D3E0C8D3B0D468D374426FB8D323332818A260B364F8DE18DDF8DDD16
S123E7808DDB3239F6C2A0C40727165A27115A270C5A27075A2702C680CB40CB20CB10CB36
S123E7A008CB0339378D59204F368D21804124028B078B0A4848484897398D118041240253
S123E7C08B078B0A9B39A70032AB0008395D2E4137F6C2A02AFB8DAC1716547DC2A02BFB36
S123E7E08D0F25F71686408D084624FB8DB6443339378D0CCB80C080C900F7C220563339D5
S123E800C5FE2707BCE800015A26F9F6C2A0C4FE3937548D2025FC5A2AF933867F37368D8A
S123E820145A26FB32334625F437368D085A26FB3233847F39B6C2608D02240E375F5CB127
S123E840C26027FAB6C260C11D3339FFFFFFFFFFFFFFFFFFFFFFFFFFBDE979BDEA06BDEAE9
S123E86094BDEAC07D0F45274FB60F36263CB60F3BB10F372610B60F3CB10F382608B60FDC
S123E8803AB10F3D2703BDEAD27D0F3D2705BDEDDE204D7D0F3E270DBDED57240886CCB77C
S123E8A00F47BDEF07BDED6D203681022605BDEC83202DBDEBD520287D0F4127088601B7B8
S123E8C00F42BDE39DBDEAD27D0F36260B86FFB70F37B70F38BDEB4EBDF7882403BDEB7346
S123E8E0B60F3DB70F3ABDEE427EE85BBDE9E3BDEA947D0F45260886FFB70F37B70F3CB667
S123E9000F3DB10F3A2712BDEE27BDE399BDE39D7F0F3E7F0F3F7F0F407D0F3D2720F60FB0
S123E9203BF10F372608F60F3CF10F382706BDE39D7F0F407D0F452731BDEDDE202CF60F80
S123E9403BF10F372706BDEE277F0F3EF60F3CF10F382706BDE3997F0F3F7D0F3E2703BD19
S123E960ED577D0F452703BDED6DBDEE42BDEA35B60F3DB70F3A7EE8EFCE0F2EFF0F2C8D4B
S123E98049B60F2FF60F2EFE0FF4A707E706CE0F34FF0F2C8D347F0F3686C7B70F4E43B73C
S123E9A00F4F7F0F3E7F0F3F7F0F407F0F417F0F428600B70F3CB70F37BDF65BBDF7E5F0D3
S123E9C0BDEF7EB70F33F70F3239BDF65BBDF7E5F0CEC14FFF0FF2FE0F2CC602BDF6A0BD19
S123E9E0F77E397F0F377F0F387F0F3A7F0F3E7F0F3F7F0F40CEFFFFFF0F4CBDF65BBDF7C3
S123EA00E5B37F0F4F39FE0F2EB60F4EBC0F302605B10F4F271ECEC15FFF0FF2B70F4FBDBC
S123EA20F7C8B60F2EBDF7ADB60F2FBDF7ADFE0F2EFF0F3039F60F3DF10F3A2706CEFFFF43
S123EA40FF0F4CCEC15FFF0FF2B60F4FBDF7C85D272D4FBDF7C8BDF7C8F60F3BC100260EAD
S123EA60BDF7C8BDF7C8CEFFFFFF0F4C202517BDEE9AB10F4D271CB70F4DBDF7AD2014DEFD
S123EA8007BC0F4C270DFF0F4C9607BDF7AD9608BDF7AD39B6C280C67FB1C28026F65A26C4
S123EAA0F816C401F70F4516C47054545454F70F3B16545453C403F70F3C8480B70F3D39FF
S123EAC0B60F3EB40F3F270486CC200286C3B70F46397D0F3E2717DE07FF0F48BDEE27B635
S123EAE00F37FE0F48BDEEDEBDEF077F0F3E7D0F3F2720BDE3999606B70F497F0F48860815
S123EB00B70F4B86E0B70F4A86C3B70F47BDEF077F0F3F7D0F402735BDE39DB60F37BDEE88
S123EB209AB10F39250BB00F39B70F497F0F48200CB00F3940B70F498604B70F488608B7E1
S123EB400F4B86D3B70F47BDEF077F0F40397D0F3D261F7D0F3B261AFE0F2EBC0F322712B1
S123EB60090909A600818F2709BDEF1DCE0020BDE4993936810426097F0F4FF60F3DBDEAB6
S123EB803DBDF77E32810F26157D0F4127088601B70F40BDEAD24FC6C7BDEE5A2036810B40
S123EBA02618B60F2FF60F2EBDEFB7B70F2FF70F2E8601C69FBDEE5A201A81072616B60FAC
S123EBC02FF60F2EBDEFB7B70F2BF70F2A8602C685BDEE5A397D0F422709BDEF477F0F4279
S123EBE07EEC82FE0F432660FE0F2EA6011684E0B70F4AA602B70F497F0F48A600B70F47A3
S123EC0081D3262DB60F4ABDEE7EB70F37BDEE9AC5042705BB0F492003B00F49B70F49B7D6
S123EC200F398608B70F4BBDEF478601B70F41200F81CC270B81C32707818F27037EE102AD
S123EC40CE0400FF0F43203A7D0F41270B960B8504262F7F0F41202A09FF0F43B60F4485B4
S123EC608027064FB70F4E2005869FB70F4EFE0F43260FB60F2FF60F2EBDEFB7B70F2FF727
S123EC800F2E397D0F422723B60F2FF60F2EBDEFB7B70F2FF70F2EFE0F28FF0F48BDEF47B1
S123ECA07F0F428601B70F407EED56FE0F432669FE0F2AA6011684E0B70F4AA602B70F4934
S123ECC07F0F48A600B70F4781D32636B60F4ABDEE7EB70F37BDEE9AB70F39C5042705BBCE
S123ECE00F492003B00F49B70F49FE0F48FF0F288608B70F4BBDEF478601B70F41B70F40CD
S123ED00200F81CC270B81C32707818F27037EE102CE0400FF0F43203D7D0F41270E960B11
S123ED2085042632BDEAD27F0F41202A09FF0F43B60F44858027064FB70F4E20058685B77D
S123ED400F4EFE0F43260FB60F2BF60F2ABDEFB7B70F2BF70F2A39D60BC501260EB60F3B16
S123ED60CE03FFBDEEDEBDEF470D390C397D0F3E2615B60F3B8100270ECE03FFBDEEDE861E
S123ED8001B70F3EBDEF477D0F3F26459606B70F49F60F3CC1002712C10126064D27114F99
S123EDA0200E8193270A869320068149270286499106271DB70F497F0F4886C3B70F47863F
S123EDC0E0B70F4A8608B70F4BBDEF478601B70F3FB60F3CB70F38B60F3BB70F3739B60F27
S123EDE03BF60F3CB10F372605F10F38273881002728C1002724BDEEB3B60F3BBDEE9AB1AA
S123EE000F492716B70F39B60F3BBDEE6D8608B70F4BBDEF478601B70F40B60F3BB70F3726
S123EE20B60F3CB70F3839960B850127140F01960B84FE970B863FB70F0186019A0C970C03
S123EE400E397D0F45270A7D0F3D26057D0F3B2608863FB70F00B70F0139B70F36F70F4EA1
S123EE60CE0000FF0F437F0F417F0F4239CEEE8CA1002704080820F8A601B70F4A39CEEEAF
S123EE808CA1012704080820F8A6003907C0062005400180026003A000008DD149494949D4
S123EEA04AB70F517F0F50FE0F50A600B70F51FE0F5039CEEECCA100270508080820F708D3
S123EEC05A26FCA600B70F497F0F48390700C906009805008601A500020093037500C6007C
S123EEE0F70F4A16C403585858F70F4B8404FF0F50F60F50C4031BB70F50FE0F50FF0F48A2
S123EF00B60F46B70F473986048D48B60F47A700088D230808FF0F2E863AA7003986048DCF
S123EF2032868FA7006F018620A702863AA703080808FF0F2E39B60F4ABB0F4BBB0F48A74C
S123EF4000B60F49A70139CE0F1E8DEA7F0F20BDE194395FBB0F2FF90F2EF10F342603B197
S123EF600F352316BDEE27BDE399BDE39DBDF65BBDF7E5473E0E0EA020FEFE0F2E398609BF
S123EF808DD186FDA7009600A7019601A7029602A7039603A7049604A7059605A7069606B7
S123EFA0A707863AA708B60F2FF60F2E8B08C900B70F2FF70F2E398003C200F10F322603AB
S123EFC0B10F3324037EE10239B6C200BD001885012703BDF24D1653F40F04F7C200F60F52
S123EFE004F7C20085402703BDF21C85102703BDF01685082703BDF25685042703BDF2D91D
S123F00085022703BD002785202703BD002A85802703BD002D3B36F60EFC5CF70EFCBD00FD
S123F0201B960B85102703BDF07485012703BD001EBDF0CA0E8602950B2710CE0EE46A0790
S123F0402609BDF0EF2404940B970B8604950B2710CE0EF06A072609BDF0EF2404940B97B1
S123F0600B8608950B270BBDF1A32406960B84F7970B323936B60F01B10F00272737B80F75
S123F080002B0DB60F00847FF60F01C47F11250B33C5032633B60F004A200933C51F2628F1
S123F0A0B60F004C16C47FC13F2E17960C8501270A84EE970C960B84EE970BB60F018480B0
S123F0C08A3FB70F00B7C2A03239960B8511270A8502261AB6F19B4320068502261086F00C
S123F0E084F0F60EFFC40F1BB7C260B70EFF39FF0F5236A60AAA0B2771F6C26053E406A643
S123F1000985042704C4702002C40E26555F8B9BC9F1B70F55F70F54FE0F54A6008D52FEF3
S123F1200F52A60916C4044C84031BA709A60BE60A8001C200A70BE70A33A401261EA609ED
S123F140EE04850427046A0020026C00FE0F52D50C270953D40CD70C6F0A6F0BA608A70738
S123F1600C39C5702704EE046F004F8D0432430D39FE0F52E600EE028CC2602605C1F02605
S123F1800143FE0F52A400EE028CC2602609530FF40EFF1BB70EFFA7000E39665599AA66C3
S123F1A0AA9955B6C26085012770FE0F19EE00A60081FF262AFE0F19BC0F152615CE000025
S123F1C0FF0F190FB60F0384F7B70F03B7C2E00E0D390808FF0F198D328D308D2E20CE815F
S123F1E0BF2617A602E601FE0F190909BC0F1727CCFF0F19A701E70020B3B7C2400FF60F1D
S123F2000237CA20F7C2C033F7C2C0FE0F19A601E6008B01C900A701E7000C39FE0EFD2697
S123F2201AD60BC5012711C601DA0CD70CD60BC4FED70BC63FF70F018D083909FF0EFD8D42
S123F2400139DE0708DF07DE0908DF0939BDFF09D7117C001039BD002125013936BDF307F1
S123F2603637BDF317BDF7E50E5E000E9D7FC2008618B7C2E0CE27100926FD86CCC6F2FE35
S123F2800F15BDF1F1BDF1A324FB0F960B84F7970BCEFFFFBDF78825210926F8B6C2808578
S123F2A00226BF86FF970FCE0004DF0DBF0F568640B7C2E03EBE0F5620A8BDF77E86F7B7A8
S123F2C00F04B7C2003332BDF326323918262D3F0F26182A272A103EFFBD002425013936C3
S123F2E0BDF3073637BDF317BDF7E53D05000E9DBDF78824FBBDF77E86FBB70F04B7C20048
S123F3003332BDF32632390F01B60F03F60F0036377FC2A03332398610B7C2E0CE30000984
S123F32026FDBDF65B393637BDF65B3332F7C2A0F70F00B70F03B7C2E0397D0EE1260830FB
S123F340A606E605FF0EE28E0FD7BDF3AB8610B7C2E0BDF65BBDF7E5771F1D05F0C603CE7F
S123F360FFFF0926FD5A26F7BDF65BBDF7E5678DB60EE2BDF7ADB60EE3BDF7AD20FE8E0F83
S123F380DF8D28B6C28085022651DE0D09DF0D27068640B7C2E03E7D000F27037EF2B58E0C
S123F3A00FD78623C6F436377EF5B5C63FF7C2A0F70F00F70F015F86F0B7C260B70EFF434B
S123F3C0B7C2C0B70F0286AFB7C300D70BD70CBDFEE7C6FFF7C200F70F04397F0EFC7F0049
S123F3E00FCE0F13FF0F15CE0F03FF0F17CE0F97FF0FF486FFC60CCE0FE0A700085A26FA2F
S123F400867EB70FF68639C60DD7159716971B9712D7219722D724972597189727972A9775
S123F4201E972D8E0FD78610B7C2E0B70F03CE3FFF0926FDBDF489CEFFFFFF0FFCCE0001A3
S123F440FF0FFECEC16FFF0FF97F0FFB8623C6F43637BDF7882518FE0FFC270609FF0FFC7C
S123F46020F0FE0FFE09FF0FFE26E78D3A20E336BDF77E32CEF95808084A2AFBA60136A6C6
S123F4800036FE0FEEB60FF039BDF70B374F051DB08679BDF7C87EFF21F47F0F20BDE35F78
S123F4A0392B3B1E2C03FFCE0200FF0FFEFE0FF9FF0FF24FBDF7C87D0FFB2617FE0FF2FFEE
S123F4C00FF98601BDF7C8FE0FF28CC10F2603730FFB39B60FFA8B10B70FFAFE0FF9FF0FB5
S123F4E0F28601BDF7C88CC16F26037F0FFB39BDF65BBDF7E5B07F0EE1B70FF0F70FF18674
S123F500F9C6F43637F60FF1BDF7777D0FF02708810F27F4810B27F0FF0FEECEF9787EF400
S123F52077BDF65BBDF7E5F786FFB70EE10E20C9B62000815526037E2001398630C6002047
S123F5400A8633C60020048636C600FE0FF4A707E70686FFB70EE17EF5B2CE0FDD86FFC687
S123F56004080808A1012604A102270E5A26F2BDF70B00473E0E0EA04C3908FF0FF08D211C
S123F5801F858D094C39FF0FF08D163D9DBDF64EFE0FF0C6027EF6A0FF0FF08D0477BD2070
S123F5A0ECCEC12F7EF7E2FE0FF40808080808088DD4BDF65B7D0EE1262BBDF83CC63FCE25
S123F5C00FDD080808FF0FEEEE01A600E700FE0FEEA7008C0FE926EACEF628FF0FF7BF0FB6
S123F5E0ECBE0FF43BBDE000251CFE0FF4EE06BC0FE1270FBC0FE4270ABC0FE72705BC0FE1
S123F600EA26B27EF6737EF834C604CE0FDD0C080808FF0FF0A600EE01A700BC0FEE2601D1
S123F6200DFE0FF05A26E8390E30BF0FF4A60626026A054AA706E605BE0FECF70FEEB70F83
S123F640EF8DC625037EF5E5FE0FEE7EF673FF0FEECEC16FFF0FF2FE0FEE398DF14FC6063B
S123F660BDF7C85A26FA8DE639CE0FF0BDF598FE0FF0398DD9FF0FF0CE0FF0C6028D03EE20
S123F680005A7EF6F98DE28DEA8D0B0820F98DD90908080920DD5D2706368D228D02323912
S123F6A037860858BDF7C85A26FA338D1137BDF796A700085A26F73317094A26FC3937B6D6
S123F6C00FF38B205A26FBB70FF333398D3C309520168D36770D0DFD20108D2E770D0D9FA9
S123F6E020098D26678D4C4C5C4C4C5C8B02FE0FF4084A26FC8D024C3937A600BDF7AD08F2
S123F7005A26F73317094A26FC395FCEC16F7EF7E2BDF64EFE0FF4C6204FE50127014CBD74
S123F720F7B55626F44C398DE15BE7F60FF5CB07B90FF48D78175F8D7486013937F6C003C0
S123F740B6C006484848594859485937F6C005C41F1B334353FF0FEECEF94911271124067E
S123F760361733CEF9515D2606084822FC27010CA600FE0FEE3339378D048D103339C67F9F
S123F7808DBA25FA5A26F9398DB22409C67F8DAC24FA5A26F9398DDF8D1B48484848371612
S123F7A08DD58D111B33368D9325FC323936444444448D013236840FFF0FEECEF939084AF8
S123F7C02AFCA6008D053239FF0FEEFE0FF2374949C61049A700095A26F9FF0FF2FE0FEE55
S123F7E03339FF0FF230EE003131A6008DDA084D2AF84F6E003616CEF91908C00824FBA617
S123F80000465C26FC32251E813024048120241481602511818D270C84BD818C2704843074
S123F8208130C2FF5C5C397D0EE12705BDE0002003BDF83CFE0FF4EE067EF673BF0FF0FE80
S123F8400FF4A60736A60636EE06863F3636A60236A60136A600368D9C2605BE0FF00D39C9
S123F860302502E7018601C1022E062702A701A7024FEB06A905A705E706FE0FF4A706E731
S123F88007C606323684CF818D32274B816E275F817E276281392766813B2771813F277332
S123F8A0AF0636CEF8ADFF0FF7BE0FF43B0E30EE05084F5FBC0FF0260C09EE0009E6002A01
S123F8C0014330EE05EB01A90030A705E70609FF0FF4BE0FF00C39818D2602865F803F3642
S123F8E00909FF0FF4A603A701085A2AF8208B325FAB05E9048C3332A707E70620D10808B5
S123F900FF0FF4A603A705095A2EF820C5085A2AFC20BC86FFB70EE120B8BC003CAF4000D0
S123F92000AC64126412641064101101100410001000110D100C100C100C7E306D79335B69
S123F9405F707F7B771F4E3D4F47070A0D0205080B0E0306090C0F000104F423F4EFF4239A
S123F960E503E8ECF423F423E858F423F53BF521F423F541F530F423F547F488F6D2F6DA23
S123F980F6E2F6CCF711F727F5B2F827F55AF685F693F696F5A7F68EF691FFFFFFFFFFFF5D
S123F9A0BDF70B373700005BDBCE05FFDF0F200EBDF70B3B3B00003DBDCE0C06DF0F86402F
S123F9C0B7C300BDF64ECE0000BDF777A764BDF7B5088C000626F2960F810C272ABDF70B47
S123F9E0770067006DB3D664BDF777810F2606CA08D7642012810D2606C403D76420088140
S123FA000E26E5CA04D764CE0000D60FF7C2C0A6648A50B7C300085AD11026F07EF37ECE20
S123FA200C06DF0F2005CE05FFDF0F86A0B7C300BDF64ED60FF7C2C0B6C300C105260284F3
S123FA4003BDF7B55AD11026EC20E51B0118262D3E0C15003C0D20090C030B12031B2C2BEB
S123FA60262D3FFF1B0118262D3E150009292F000C9BBCBCABB5B73832231B3C2939021E1A
S123FA801A3619062911230D23186B75770E15232A3FFF15000929192F000D6A7D593E1817
S123FAA023082919B8898A9F3FFF15000929192F000D0C37370F0C15000929556B4C3FFF6B
S123FAC015000929192F000D22363737120C150009299CAB8B89657A3FFF15000929192F54
S123FAE0000D2A3A2B0D0C150009295B42405E3FFF2F000D1E15000929192F000D4C77775D
S123FB004FB20E3108372A3FFF7D581F35373E15000929192F000D1F02000D1FD8E3C8E907
S123FB20EA3E9F95A3AD8D9E3E2F000D1E4C77774F4C404D6A3FFF554049691F3C2998A342
S123FB4088A9AA3FFFEDD5E3F74B496A7F4B49529E95AB993FFFAD86A1A9AA3E1F32230CEF
S123FB60390B09144C77774F5E3FFF3E3E150009299BBAAB9E786F406A3FFF3E3800050050
S123FB802B0B09121F32230C390B09140B090D0C150009296D4649693FFF1B02001825C2FC
S123FBA0C0D8E53E5B424058653E3E3E3E3218152B0C03C2CCFADEDA82808D9FA9033E3FC4
S123FBC0FF150009291B2F000F0621290E2B0621290D3E1E1A32311F2A182308291962761D
S123FBE077771E3637373E3E3E0E32312A4C554049690E2B0621290D0B0912062129193212
S123FC00230C65627677776A3A3E3E3E0C1500092935370D3A252B351C2B2F000C120C15E8
S123FC200009291932230C25223637372A3A5D74746B0C3C292F000D1E15000929BD98AD01
S123FC408689A9921E3637372F0012150009290C252B351C2B2F000C1E3FFF380005002B35
S123FC600B09120D35371F32312A10390B09142F0012062129CEEFC0DE2B35370E15232AD1
S123FC803E1E1A32311F2A0621290C0B091FA5ABB59C2B2F000C1E2D32310D3FFF9C95A3DB
S123FCA0913E15000929390B091419150009290C1E1A32311F2A320E3108372AA5BA5D42A1
S123FCC040596A3FFF55404969390B0914192236373715232B99A2B6B7B7EA3E3E3E5C4B4B
S123FCE0494F0C3C290621295B72715C3E6B75770E15232A1F0D3C291E1832230F6A777785
S123FD00777E3FFF2236373715232B0F022B29726A6B6F40596A4B4F3E3E3E1D34342B065B
S123FD2021295B627677770C010D3FFF2200021F9FBAAB3E2236373795A3AB5B6F404D5E19
S123FD401F32230C3FFF2934342B6D4B49510B09120C150009291932234C6F404D5E3FFF08
S123FD60B5B7B73FCCD5C0C9E9FEFEE5D8FCE1D25E7677774D55636A5E76777701010D2977
S123FD80390B09142A36379BBAABAA3F4C7C693FFF25183C21120EC329192D1500210A2AB9
S123FDA03E3E150009290C2A2B150009290B09142A36371F183C29253FFF15000929390B8B
S123FDC0091419150009290C062129192F000D4240591F02001802000D2A2502002A3E3ED7
S123FDE0554049694C290F4A4D5B6348775F2A2B0621290D1E3FFF253C212523181F2A0088
S123FE00003A2F002A0C3C2932311815232A3E3E150009291F3231253537120B092A1F0EAA
S123FE2029193D12150009290C1F35371134342B2A3FFF2D35342B0D0B09143E3E3E2D3531
S123FE40342B0D0B09140B090D2A2B3637371E3A3E3E3E150009291B2F000F1F32310C327E
S123FE600D1E38322325321821291F3FFF35370D35373E150009291E3637370D15232A1EF7
S123FE803637372D0B0D1E3537123FFF150009292F000C0B090D1906092925230E231832E4
S123FEA0230F0C062129190B140621290C0B091F2A062129193E3E3E380005002B1D3434AF
S123FEC02B3E223637370C32311F2A0E3C292B3D143FFF7D0EE1260183397D0EE127013FE8
S123FEE039FE0FF4EE0839FE0EDF8CAAAA2716CEAAAAFF0EDFCE0000EF00EF03CE6249DF78
S123FF0005864D9702F7C20039F6C22026015A39FFFFFFFFFFFFFFFFFFFFFFFFFFFFFFFFF8
S123FF20FF86AAB10EDE270A86A1C6F47F0F20BDE35F39863AC6FF7EFFCE4FC602CEC22062
S123FF40E7006F005AE7006F004C26F9CE0100B6C2A0F7C2207FC220A700088C0EDE26EFCF
S123FF600E7E0100866AC6FF2064BDF7E53D0E1D7DBD0F867E972DCEFFBCDF2E0E8D2981CA
S123FF80AA26FA8D2397418D1F97408D1B97438D179742DE40270E09DF408D0CDE42A700AE
S123FFA008DF4220EE7EF37E7F00448680B7C220D64427FC4F4A26FDB6C2A0397FC220C644
S123FFC0FFD7443986A0C6F9200486B0C6F9FE0FF4A707E7067F0EE17EF5B2FFFFFFFFFFA2
S123FFE0FFFFFFFFFFFFFFFFFFFFFFFFFFFFFFFFFFFFFFFFFFFFFFFFEFC90FF6F33AF37EBA
S9030000FC
