S11360005502602560526079600A0E8E09FFBDEF6B
S11360106FB608068A01B70806BD7460FF0804BDA0
S113602071947E694D8E09FFBDFBF820250D0A573A
S1136030696E74656B204845524F2D4A5220424187
S1136040534943202D2D2056657273696F6E20309D
S11360502EB10E8E09FFCE602DBD6327B608068AC9
S113606001B70806BD7460FF0804BD7194BD61B535
S1136070CE0A02FF0A00BD61C00E8E09FFBDEF6F9C
S1136080CE086AFF080EBD61BBC63EBD62C7CE081E
S11360906ABD6376FF0833BD63C64D261DFE080A3C
S11360A0A600810D260AF6082B27CEB70816200A6B
S11360B0BD695B270586107E64BEB60840B008291A
S11360C0B70840F6082B27037E61D7BD6307EE00AF
S11360D06E004257446CC84441546A1044494D68A8
S11360E050454C536907454E446079464F526BC93D
S11360F04657446CDD474F536B71474F546987498A
S113610046206ABC494E50699F4C43466D5E4C45DF
S1136110466CF24C455469764C495364544C4F4197
S113612065114D4F4E74264E45586BFB4F4E206AF9
S11361307A504F4B6C92505249661C50554E6565CF
S11361405245416A2352454D69075245536A72527A
S113615045546BA85249476D0752554E694D5343F8
S113616052606D5350456D1C5443466D66555345FE
S113617065C857484F65D0004142536E314541527E
S1136180742C45594574334B455974094C43467135
S1136190A24D4F54743A5045456E1C5241447410FC
S11361A0524E446E3553474E6E28534F4E744854E6
S11361B04346719B00CE0902FF080ECE0810200D45
S11361C0FE080408FF080EFE0A00FF080C4FA70093
S11361D008BC080E26F839FE0804FF0839FE083307
S11361E0FF080ABD629AFF08255D263B5CA60008ED
S11361F0810D26F8FE0825FF082C37085A26FCFFD7
S113620008333386FF508D75FE0825BC0A00271419
S1136210FE0833A60008FF0833FE082CA70008FF79
S1136220082C20E7FE0825B60816264EFE0A00F6BE
S11362300840CB02378D4633FF082C085A26FCFF52
S11362400833FE082CBC0825271409FF082CA600D7
S1136250FE083309A700FF0833FE082C20E709BD18
S113626068450808FF0825FE080AA60008FF080A72
S1136270FE082508A700810D26EA7E6079FB0A0145
S1136280B90A00F7083CB7083BBD70962407F70A23
S113629001B70A003986907E64BEB60866F60865C2
S11362A0CE0A02BC0A0026025C39E100220A26F862
S11362B0A101220426F25F398D030820E636860DFB
S11362C008A10026FB32398D3E172602C63FBD6465
S11362D0B88620BD64B87F0840CE086A8D1027E7D1
S11362E0A700810D2720088C08B226F020D98D3D07
S11362F08108260B8C086A270D097A084020EF8153
S11363007F27037C084039FF0825B6082636B608DF
S11363102536CE632BA60008BD64B84D2AF730EEAF
S11363200031317F082039343420EA0D8ABDFB273F
S1136330847F8103260586997E64BE39BD727D24DF
S11363400586997E64BE39810D2702813A39BD6E76
S1136350E34FB70864B70865B70866398DF3B70823
S11363602BB7082AB70829BD63B2812B2707812DD3
S1136370260473082A08BD70D6C1032706B6082A66
S11363807E6F8A08B7082B840FC6047808667908DC
S1136390657908645A26F4BB0866B708667C082940
S11363A020D4FE080AA600812027070820F78DAC18
S11363B00908A600812027F939FE080ABD70D6C154
S11363C00226EF0820F6BD63B2FF080AFF0825CEB7
S11363D060D2C605A1002616FF080EFE082508A6F1
S11363E000FF0825FE080E085AC10226E739085A9C
S11363F026FCA60027F7FF080EFE080AFF0825A6BC
S113640000FE080E20CCB6086636B6086536C6020D
S11364100CB60864362A1A862DBD64B87C08200C94
S1136420200F323685F025022707BD64B07C082092
S11364300D32C5FF2706850F25022707BD64B47CEE
S113644008200D5A2ADC39C6010CA60136A60036EE
S1136450080820CEBD63B9810D272ABD635CFF08FF
S11364600ABD629AFF0825BD63B9810D26057C0823
S11364701E200D08BD63B2BD635CB60866B7081E76
S1136480FE08252003CE0A02BC0A002720BD6307AC
S11364908DB5A600810D27058D1E0820F508B608C8
S11364A01E27E58B99192705B7081E20DB7E607926
S11364B044444444840F8B30BD633C7EFB6D36BD45
S11364C06307CE64F4BD63273236BD64B032BD6465
S11364D0B4F6081C26037E6079CE6502BD6327FEF0
S11364E0080A098C0A022707A600810D26F408BDB4
S11364F0644720E2074572726F72206E756D6265A3
S113650072A020666F756E64206174206C696E657C
S1136510A0BDFB27815326F9BDFB2780392606BD84
S1136520726D7E607980F826E88D29C002378D244B
S113653034378D2030E701EE003131335A270837E4
S11365408D12E7000820F48D0B4C27C5BD726D86B3
S1136550127E64BE36BDFAD04848484816BDFAD00B
S11365601B16321B398600C60A3637BD63078653AD
S1136570BD64B8B60A01F60A0030A001E20026079D
S11365804D273B8110250286108B03368631BD646E
S1136590B85F308D248D228D2086FD30AB00A7009E
S11365A0270FEE018D133086FF6C0226EE6C01205E
S11365B0EA53E7008D033120B2EB007EFB7A3131E0
S11365C08639BD64B87E6907FE0800AD007E6907A0
S11365D0CE65D9BD63277E69070D0A44656E6E6971
S11365E0732C204A696D2C2026205374657665200F
S11365F061742057696E74656B20436F72706F729B
S11366006174696F6E2C204C616661796574746580
S11366102C20496E6469616E612E0D8A5F37BD63FB
S1136620B9BD634726037E66D8335F37812C2620A5
S1136630F608208620BD64B85CC50726F6F7082056
S1136640C14F2303BD6307335C3708BD63B220D158
S1136650813B27F38122260608BD66E2206C7F0871
S11366601A81542607B7081A864120068153263317
S11366708650A101262DBD63BCBD6D6EBD67DCF6E1
S113668008662746B6081A27085AF10820233B2033
S113669003FB08208620BD64B87C0820F10820266E
S11366A0F320278143261D8648A1012617BD63BC1C
S11366B0BD6D6EBD67DCB60866BD64B84D2B0B7C42
S11366C008202006BD6D6EBD6406BD70D15A260338
S11366D07E662186317E64BE335D2603BD63077EFC
S11366E06907A6008122270EBD6347270DBD64B844
S11366F07C08200820EC087E63B286327E64BEFFEC
S1136700080ABD70D8C1022637804116481B8BB4D5
S1136710B70824C608C900F70823FE082339A600D1
S1136720087F081B8DD95FA600810A2706810B27E5
S113673001395CA60136A6023637BD63B933812818
S113674027037E67CC5D271408BD6D71B6086636D5
S1136750BD6EF4BD63B9812C267220024F364CB74E
S1136760081B08BD6D7108FF080A32B7081732B755
S1136770082432B70823FE0823A600B7081908081E
S1136780FF0823BD634EB60817FE082309A10022A3
S11367903BB70866BD634EB60819B10860270223EB
S11367A02B8B0119B70866BD6F96BD6F67BD67D1A6
S11367B0B60823F60824FB0866B90865B70823F76A
S11367C00824BD6EF4FE08237F081B3986147E64FA
S11367D0BEBD634E8603B70866BD6F96B6086636BF
S11367E0B60865365FF70865F70866B608648D2451
S11367F032368D1C328D1D32368D15328D347D0826
S1136800642A0CB608654370086682FFB7086539C8
S1136810444444448D1CF608654859373648594861
S113682059B7086632F708658D0A32BB0865B708A0
S11368306539840FBB0866B7086624037C0865398C
S1136840B60864A700B60865A701B60866A70239AA
S1136850FE0804FF0839BD63B9BD63B2BD66FFFF1E
S1136860080EBD63B98128262D08BD63AE81292693
S1136870054F365F2025812C261CB60864BA0865AE
S11368802614B60866270F8198220B3608BD63AE1E
S1136890C6018129270586407E64BEB60864BA080D
S11368A06526F3B6086627EE819822EA36FF080AC1
S11368B0FE080E860A1BA700B6080CA701B6080D31
S11368C0A702FE080C32A7000833E70008FF0823DC
S11368D08B011936178B011916BD6351F70866BD74
S11368E0634E32B70866BD6F96BD67ADBD70932326
S11368F0037E6295FF080CFE080A08BD63B2BD63FF
S1136900472704087E6859B6081C26037E6079FE72
S1136910080A860DC63AA1002707E100270B0820C4
S1136920F508BC0A0027E5010808BD633C4FB70819
S11369301FB7081BB7082EBD63C64D260CFE080AF8
S11369408D19270586107E64BEEE006E00BD61B50C
S1136950BD61C0CE0A027C081C20C7BD70D6C1022E
S1136960261308BD63B2813D270481282607CE6122
S113697016B7081F5F39FE080AB6081F2603BD6351
S1136980A2BD6BE87E6907BD63B9BD6D6EBD629A39
S11369905D270586167E64BE5CF7081C7E6922BDF1
S11369A063B98122260408BD66E2BD69FDFF080AB9
S11369B0BD62C9BD6307CE086AFF0833FE080AA694
S11369C000BD634726037E6907BD6351FE0833BDDE
S11369D070D1C102260916BD7067BD63BC2007C112
S11369E0012703BD635CBD69FDFF0833FE080ABDD2
S11369F0671EBD6A0ABD69FDFF080A20C4C63FA61A
S1136A0000812C26045FBD63B139BD68407E63B943
S1136A10B6081C2755BD63B9B7081DFF0810FF0849
S1136A20122047B6081C2742B6081D2740BD63A2A2
S1136A30BD63B2BD6720FF0835FE080AFF0837FEB4
S1136A400812BD6D6EA60008BD63472603FE08103C
S1136A50FF0812FE0837FF080AFE08358DAC812CAA
S1136A6026030820CBBD634726037E690786517E33
S1136A7064BEFE0810FF081220F0BD63A2BD6D6E57
S1136A80B60866840F367F08160808A600815427C6
S1136A9003B70816BD63A5FF0825324A2713E6008D
S1136AA008C12C2605FF082520F1C10D26F0FE089B
S1136AB025F6081627037E6B797E698ABD63B9BD06
S1136AC06D6EA600BD6B65264D36A601BD6B6532A5
S1136AD02604E6011B080836BD6D6E32840F80095A
S1136AE02B344848CE6AFE4D2704084A26FCFF088A
S1136AF033BD6F5FBD70A507FE0833066E002F1B04
S1136B00203B261720372C1320332D0F202F270B43
S1136B10202B2E07202786627E64BEFE080AA6006C
S1136B20815426168648A1012610BD63B9FF080AC0
S1136B30BD70D8C10326037E698A7E6937FE080AC0
S1136B40860DC63AA100271AE10027030820F5BDE7
S1136B5063B18145260C864CA1012606BD63BC7E2B
S1136B6069377E6907813B2306813E22025F395CD7
S1136B7039F6081C27C7BD63B97C081EBD6D6E4F6E
S1136B8036B6080B36B6080A36BF0839CE0945BDF5
S1136B90709323037E6295BD629A5D27037E699399
S1136BA05CF7081C087E692986737A081E2A037E0E
S1136BB064BE33F7080A33F7080B335D27087A08F5
S1136BC0182AEF7E64BE7E6907BD63A2368D19B6AE
S1136BD0080B36B6080A36BF0839CE0945BD70938E
S1136BE022B27C08187E6907BD671EFF0835BD63A5
S1136BF0B908BD6D6EFE08357E6840BD63A2FF080E
S1136C00217D081826037E6C8D30A102270C6D02AD
S1136C10277B3131317A081820E730EE00FF080A6B
S1136C20BD6720FF0835BD63B9BD6D6EBD6EE3FE63
S1136C300835BD6ED3FE080AA60081532709BD633B
S1136C404E4CB70866200CBD63BCBD6D6EB60864BF
S1136C50B7081FBD6F67CE0814BD6840BD6F5FBD28
S1136C6070A507F6081F2B05062C132003062F0E0C
S1136C703131317A0818FE0821FF080A200CCE08A9
S1136C8014BD6ED3FE0835BD68407E690786817EDB
S1136C9064BEBD63B9BD6D6EBD67DCB6086536B64E
S1136CA0086636A600812C261A08BD6D6EBD67DC09
S1136CB032B7080F32B7080EFE080EB60866A700F2
S1136CC07E690786207E64BEBD63B9BD6D6EBD67F7
S1136CD0DCF60865B60866BD72337E6907BD63B924
S1136CE0BD6D6EBD67DCF60865B60866BD722A7EAA
S1136CF06907BD63B9BD6D6EBD67DCF60865B6088E
S1136D0066BD71FD7E6907BD63B9BD6D6EBD67DC8F
S1136D10F60865B60866BD720C7E6907BD63B98165
S1136D2022260F08FF080AF6080AB6080BBD729F50
S1136D30200FBD6D6EBD67DCF60865B60866BD72D2
S1136D408F7E6907BD63B9813D270586187E64BEC1
S1136D5008BD6D6EBD67DCF60865B60866398DE45E
S1136D60BD717F7E69078DDCBD716A7E69077F080E
S1136D702EB6082EB7082F8D074D2601397E64BE26
S1136D80BF08B2BD70D1FF080AC1012604862120C4
S1136D905754C1032603BD634EFE080ABD70D1FFDC
S1136DA0080A81242754C1042302C6055D27375AE3
S1136DB027235A274D5A27375A2704360820C43028
S1136DC009F6081BBC08B22709325F812826037E16
S1136DD06E715D27114FF6082E5AF1082F260730E1
S1136DE009BC08B227058620BE08B2FE080A39BDD0
S1136DF06EE3FE080ABD635C207BBD6EE3BD74B721
S1136E002073A601BD70D8C1022638A600FF08254C
S1136E10CE6178BD63D24D27BC7E6949865B36FE60
S1136E200825BD63BC7E6D83863F36FE08257E6DD6
S1136E3083864020F5BD634EBD712BB70866FE08FE
S1136E40252032F608B237F608B337F6082F37F69E
S1136E50081B37BD671E33F7081B33F7082F33F7BA
S1136E6008B333F708B2BD6EE3FE0823BD6ED3202A
S1136E7007FE080A08FF080A3009BC08B227413295
S1136E80368128273BBD70D8B6082E4A37C10D2756
S1136E900A54C1042705B1082F2725810923048634
S1136EA024201A32338006CE6EC34D270508084AC3
S1136EB026FBEE00AD00BD70A528BD86237E6DE8DF
S1136EC07E6D996F676F5F70296F556F966FB9709C
S1136ED03C705CA600B70864A601B70865A602B7B3
S1136EE0086639CE083DE603E700088C086426F6F8
S1136EF07C082E39CE0866E600E703098C083C2698
S1136F00F67A082E390CCE0866A600A90319A70044
S1136F10098C086326F337C60285F026015FFA0858
S1136F2032F708321733398D030D20DACE0869861B
S1136F3099A000A700098C086626F4840FA70139DC
S1136F407F0832B6086716C40FF70867B70831B868
S1136F500864B70830F60864C40FF708644D39B6FE
S1136F60086488F0B708648D5F8DD52A0C8DB8BD90
S1136F7070C42809730831200B8D8A200A8D49BDFD
S1136F80634E8DA37F0832B6083184F0C60FF4082F
S1136F90641BB70864398D308DA6BD634EC605B633
S1136FA008612708BD6F057A086126F85A273E8DC7
S1136FB04CB60864BD6F1620E68D0DCE0867BD7013
S1136FC0A8260886227E6DE87E6EF4BD6F40BD6EF5
S1136FD0E38D2A6F026F03C6058D22BD6F2C8D2FA2
S1136FE085F02614BD6F2C0C8D265A26ECB608307D
S1136FF08D98CE08607E6EF77C086620E18604CE0C
S113700008660C6900098C086026F84A26F1390DD7
S1137010CE0863B60861840FB70861A600A90619F3
S1137020A700098C086026F3398D7A270CF60864CA
S11370308D077C0866177E6F8A7E63518D8A5FF7A1
S11370400832B6086927E9BD6EE3BD6FC88B99198C
S1137050275236BD6F43BD6F9A3220F1BD67DCFE07
S11370600865E600BD6351C16425077C0865C064FA
S113707020F537C40F4F1B19B708663284703644A5
S1137080444419161B191B19331B19BB086619B77D
S1137090086639FF083BB6083BB108392606F608EE
S11370A03CF1083A39CE08645F6D02260E6D012664
S11370B00AA600840F2604A700C604A60046840876
S11370C01BBA0832373684EF160784101B06323396
S11370D039BD63B22002A600C601810D271F5A36AE
S11370E080282B18811823168132230E813326041D
S11370F0C60D200881362604C60ACB023239FF08A1
S113710027CE71124D2704084A26FCE600FE082704
S113711020EA05040A060107000B03030303030323
S11371200303030301010101010809C608CE08068F
S1137130A603484848A803484869006901690269E8
S1137140035A26ECA600819F22E18B0019393637B9
S1137150BD634E335D332A0686F0B7086450BD70B4
S113716067FE0825BD63BC7E6E753637860C5FBD31
S1137170752E36378664C600BD7591B70802393658
S11371803786925FBD752E36378664C600BD75910D
S1137190B7080339CE0C92FF080239B60802C60CB0
S11371A02005B60803C692375F36378664C600BD2D
S11371B0752E303637A6005FBD7591317E714E371E
S11371C036B60802444444B90802200C3736B608DF
S11371D00220053736B60803375FBD752E280D30FB
S11371E086FFC67F6D002A045340C2FF31574657BD
S11371F046574657465746574626015D395D2A0489
S113720086FFC67F5340C2FF8DC220095D2A0486D3
S1137210FFC67F8DAA2712BDED0EBDED8226FB8D24
S113722029BDED27BDED8226FB395D2A0486FFC604
S11372307F200B5D2A0486FFC67F5340C2FF8D93D7
S113724037BDED2733BDED8226FBCE0000FF05A13F
S11372505D2A095340C2FFBDECDB2003BDECC3F142
S113726005A12603B105A224F6BDED5239B6D88195
S1137270CE0ED8B6D8804425F40926F73936B6D8C8
S113728080442409B6D88181030D27010C32393694
S11372903730EE003131BDF013BDF06326FB3934D5
S11372A03436373086FFC603A703E7023332343659
S11372B03730A60316C4C0E702E604E703085C26D9
S11372C0F881FF260144A7028D3830EA02E702253F
S11372D0DBEE00A60030810D271D813A271981229B
S11372E027158031250981042405444646A7026CEC
S11372F00126026C0020D1313131308D99324C2677
S1137300FC3930EE02C604A6038A2036095A26F751
S11373105FCE734D5C086D002B1B32A10027F53640
S113732009A6005A26F908A6002AFB6D0126E531B4
S1137330313131201817C0052704315C26FC4AE698
S113734000C47F30AB03A70324026C020D397374AD
S11373506F70BF656833806568328165683182709B
S11373606130836168328861773193616831956FE8
S11373706F3196756833A3616531AF617732B0754B
S11373806832B1756831B2746876B8706131BE64C0
S113739074846132856131867A6887693389693298
S11373A08A69318B6368907368916E67946F6F9785
S11373B06179A17931A26168A46165AE7568B36F22
S11373C032B46F31B56975B67531B77468B9657221
S11373D0BA6568BB6531BC6177BD6D8C6E8D628E9C
S11373E0768F7A926C986B996A9A689B679C669D73
S11373F0649E739F61A070A56FA669A775A879A9FB
S113740074AA72AB65AC77AD00BDF07F5F7E714E40
S1137410BDF10516270C86054A5424FC810222027C
S113742088035F7E714EBDFBF87E6079BDEB9F5F84
S11374307E714EBDEBBF5F7E714EBDEC7526034F72
S1137440200286015F7E714EBDEFA13637860AC6E3
S113745000BD75283637867FC600BD75897E714E9E
S113746086FFC607200AEE02A70031313332CB086B
S11374703637363730EE02A600C655E700E100265F
S113748025536300E100261E3037E600C008E700FC
S11374903325D3EE00E10026EF30EE0263005330D3
S11374A0EE00E10026E230EE02A700313133C008DD
S11374B03730EE003332394FB70864B70865B70880
S11374C066FE080A8D4C250586207E64BE36C604F9
S11374D0B60866BB086619B70866B60865B90865D4
S11374E019B70865B60864B9086419B708645A2658
S11374F0DF32BB086619B708668600B9086519B794
S113750008658600B9086419840FB708648D0325DB
S1137510BC3908A6008030250D810A250A4A81104D
S11375202504811625010C3936375F37201C305D60
S11375302A045340C2FF363756E802CA7F37E602B0
S11375402A07536003C2FFE7025F8611364F3024D7
S113755004AB03E9025646660666076A0026F04D48
S113756026035D27010B07E6066701240F2A07534C
S11375706007C2FFE706E8012A028A02EE043131FD
S1137580313131310633326E000C0A200A0C0B20E3
S1137590060D0A20020D0B363707468481241B3062
S11375A0E6042A09536005C2FFE7048806E6002AB8
S11375B009536001C2FFE70088023686083630A608
S11375C00227245FA606E706690749592407A00392
S11375D0E2020C200AA003E2022404AB03E90269DC
S11375E0076A0026E520220DE6030B273B680068A6
S11375F0076906492404100C20041024011B6907A0
S113760069066A0026ED5F6306630767012406A71F
S113761007E706670167012A0EE606240853600798
S1137620C2FF0DE70656590C07EE0406313131311D
S1087630313133326E1C
S9
